:100000000C9462000C948A000C948A000C948A0070
:100010000C948A000C948A000C948A000C948A0038
:100020000C948A000C948A000C948A000C948A0028
:100030000C948A000C948A000C948A000C948A0018
:100040000C9402040C948A000C94D0030C94AA0320
:100050000C948A000C948A000C948A000C948A00F8
:100060000C948A000C948A000000000024002700F1
:100070002A0000000000250028002B0000000000DE
:1000800023002600290004040404040404040202DA
:100090000202020203030303030301020408102007
:1000A0004080010204081020010204081020000012
:1000B0000008000201000003040700000000000027
:1000C0000000A70611241FBECFEFD8E0DEBFCDBFD2
:1000D00011E0A0E0B1E0E6E6FEE002C005900D927E
:1000E000A632B107D9F721E0A6E2B1E001C01D9226
:1000F000A63DB207E1F710E0C2E6D0E004C02197C8
:10010000FE010E942B07C136D107C9F70E944C049B
:100110000C9431070C940000AF92BF92CF92DF9203
:10012000EF92FF920F931F93CF93DF936C017B01AC
:100130008B01040F151FEB015E01AE18BF08C0173D
:10014000D10759F06991D601ED91FC910190F081B0
:10015000E02DC6010995892B79F7C501DF91CF9173
:100160001F910F91FF90EF90DF90CF90BF90AF90D5
:100170000895FC01538D448D252F30E0842F90E0AD
:10018000821B930B541710F0CF9608950197089592
:10019000FC01918D828D981761F0A28DAE0FBF2F5B
:1001A000B11D5D968C91928D9F5F9F73928F90E0B1
:1001B00008958FEF9FEF0895FC01918D828D981720
:1001C00031F0828DE80FF11D858D90E008958FEF5D
:1001D0009FEF0895FC01918D228D892F90E0805C26
:1001E0009F4F821B91098F73992708958FE291E0A9
:1001F0000E94EA0021E0892B09F420E0822F089573
:1002000080E090E0892B29F00E94F60081110C9487
:1002100000000895FC01A48DA80FB92FB11DA35AA9
:10022000BF4F2C91848D90E001968F739927848F16
:10023000A689B7892C93A089B1898C918370806439
:100240008C93938D848D981306C00288F389E02DDA
:1002500080818F7D80830895EF92FF920F931F938B
:10026000CF93DF93EC0181E0888F9B8D8C8D981369
:100270001AC0E889F989808185FF15C09FB7F89475
:10028000EE89FF896083E889F989808183708064C1
:1002900080839FBF81E090E0DF91CF911F910F910C
:1002A000FF90EF900895F62E0B8D10E00F5F1F4F1B
:1002B0000F731127E02E8C8D8E110CC00FB607FC2A
:1002C000FACFE889F989808185FFF5CFCE010E94B8
:1002D0000A01F1CFEB8DEC0FFD2FF11DE35AFF4F1B
:1002E000F0829FB7F8940B8FEA89FB898081806246
:1002F000CFCFCF93DF93EC01888D8823B9F0AA8903
:10030000BB89E889F9898C9185FD03C0808186FDD0
:100310000DC00FB607FCF7CF8C9185FFF2CF80811F
:1003200085FFEDCFCE010E940A01E9CFDF91CF9189
:100330000895833081F028F4813099F08230A9F05B
:1003400008958730A9F08830C9F08430B1F48091E5
:1003500080008F7D03C0809180008F778093800024
:10036000089584B58F7784BD089584B58F7DFBCFC4
:100370008091B0008F778093B00008958091B00095
:100380008F7DF9CFCF93DF93282F30E0F901E2552D
:10039000FF4F8491F901E656FF4FD491F901EA57D6
:1003A000FF4FC491CC23A1F081110E949901EC2F41
:1003B000F0E0EE0FFF1FE458FF4FA591B491EC91D0
:1003C000ED2381E090E009F480E0DF91CF91089582
:1003D00080E090E0FACF1F93CF93DF93282F30E097
:1003E000F901E255FF4F8491F901E656FF4FD49190
:1003F000F901EA57FF4FC491CC23A9F0162F8111C0
:100400000E949901EC2FF0E0EE0FFF1FEE58FF4F16
:10041000A591B4918FB7F894EC91111108C0D095C3
:10042000DE23DC938FBFDF91CF911F910895DE2BE8
:10043000F8CFCF93DF9390E0FC01E656FF4F249175
:100440008A579F4FFC0184918823C9F090E0880F60
:10045000991FFC01E859FF4FA591B491FC01EE589A
:10046000FF4FC591D49161110DC09FB7F8948C9145
:10047000209582238C938881282328839FBFDF9136
:10048000CF910895623051F49FB7F8943C91822F38
:10049000809583238C93E8812E2BEFCF8FB7F89430
:1004A000EC912E2B2C938FBFEACF3FB7F89480911D
:1004B0002B0190912C01A0912D01B0912E0126B518
:1004C000A89B05C02F3F19F00196A11DB11D3FBF8C
:1004D000BA2FA92F982F8827BC01CD01620F711D5B
:1004E000811D911D42E0660F771F881F991F4A9555
:1004F000D1F708958F929F92AF92BF92CF92DF92E1
:10050000EF92FF924B015C010E9455026B017C014E
:100510000E9455026C197D098E099F09683E73403F
:1005200081059105A8F321E0821A9108A108B1087C
:1005300088EEC80E83E0D81EE11CF11C81149104E2
:10054000A104B10429F7FF90EF90DF90CF90BF9006
:10055000AF909F908F900895CF92DF92EF92FF928D
:100560000F931F93CF93DF9310E000E0CFE0D0E034
:10057000CC24C394D12CE82EF12C60E083E00E94BF
:10058000EB01CE010197F1F7B601002E02C0660F14
:10059000771F0A94E2F76E217F21002E02C0759525
:1005A00067950A94E2F782E00E94EB01CE01019781
:1005B000F1F761E083E00E94EB01CE010197F1F7D2
:1005C0000F5F1F4F08301105C1F660E083E00E9405
:1005D000EB01CE010197F1F760E082E00E94190281
:1005E00061E083E00E94EB012197F1F782E00E9435
:1005F000C201EC0161E082E00E94190281E0CD2B92
:1006000009F080E0DF91CF911F910F91FF90EF9063
:10061000DF90CF900895CF93DF9360E083E00E9456
:10062000EB0160E082E00E94EB01CFE0D0E0CE0180
:100630000197F1F761E083E00E94EB0161E082E065
:100640000E94EB012197F1F7DF91CF910895CF93AD
:10065000DF9361E083E00E94EB0161E082E00E94B1
:10066000EB01CFE0D0E0CE010197F1F760E082E04E
:100670000E94EB0160E083E00E94EB012197F1F71B
:10068000DF91CF9108950C94DC06CF92DF92EF9228
:10069000FF926091D0017091D1018091D20190912F
:1006A000D3012AE0C22ED12CE12CF12CA701960116
:1006B0000E94EA0681E090E00E9443036091D0012D
:1006C0007091D1018091D2019091D301A70196013F
:1006D0000E94EA06CA01B901A70196010E94EA0632
:1006E00082E090E00E9443036091D0017091D101BB
:1006F0008091D2019091D30124E630E040E050E0B7
:100700000E94EA06CA01B901A70196010E94EA0601
:1007100083E090E00E9443036091D0017091D10189
:100720008091D2019091D30128EE33E040E050E077
:100730000E94EA06CA01B901A70196010E94EA06D1
:1007400084E090E0FF90EF90DF90CF900C94430313
:100750000C94D4061F920F920FB60F9211242F9370
:100760003F934F935F936F937F938F939F93AF9339
:10077000BF93EF93FF938FE291E00E940A01FF91F4
:10078000EF91BF91AF919F918F917F916F915F9109
:100790004F913F912F910F900FBE0F901F90189582
:1007A0001F920F920FB60F9211242F938F939F9346
:1007B000EF93FF93E0913F01F09140018081E09140
:1007C0004501F091460182FD1BC090818091480156
:1007D0008F5F8F7320914901821741F0E0914801AA
:1007E000F0E0E15DFE4F958F80934801FF91EF911E
:1007F0009F918F912F910F900FBE0F901F90189582
:100800008081F4CF1F920F920FB60F9211242F9375
:100810003F938F939F93AF93BF93809127019091C4
:100820002801A0912901B0912A013091260123E0ED
:10083000230F2D3758F50196A11DB11D20932601D8
:100840008093270190932801A0932901B0932A0156
:1008500080912B0190912C01A0912D01B0912E013E
:100860000196A11DB11D80932B0190932C01A093A3
:100870002D01B0932E01BF91AF919F918F913F9128
:100880002F910F900FBE0F901F90189526E8230F01
:100890000296A11DB11DD2CFCF93DF9300D01F923E
:1008A000CDB7DEB7789484B5826084BD84B58160AD
:1008B00084BD85B5826085BD85B5816085BD80912B
:1008C0006E00816080936E001092810080918100A3
:1008D000826080938100809181008160809381009B
:1008E000809180008160809380008091B10084605D
:1008F0008093B1008091B00081608093B0008091BE
:100900007A00846080937A0080917A00826080937C
:100910007A0080917A00816080937A0080917A00D9
:10092000806880937A001092C100E0913F01F091BD
:10093000400182E08083E0913B01F0913C01108214
:10094000E0913D01F0913E018FEC808310924701D0
:10095000E0914301F091440186E08083E091410100
:10096000F0914201808180618083E0914101F091AA
:100970004201808188608083E0914101F0914201D1
:10098000808180688083E0914101F0914201808103
:100990008F7D808362E08EE00E94190262E08FE02A
:1009A0000E94190262E080E10E94190262E081E186
:1009B0000E94190261E084E00E94190261E083E074
:1009C0000E94190261E082E00E9419020E9427033E
:1009D0008EE80E94AC020E940B0390E080E00E942F
:1009E000A803882339F00E94450360E090E080E08E
:1009F0000E94430384E090E00E94A803182F83E044
:100A000090E00E94A80328EE33E0129FA001139FFC
:100A1000500D112494E6899F400D511D11245B83D4
:100A20004A8382E090E00E94A803EA81FB812AE0E9
:100A3000829FE00DF11D1124FB83EA8381E090E0A9
:100A40000E94A8034A815B81480F511DCA01092EEB
:100A5000000CAA0BBB0B8093D0019093D101A09303
:100A6000D201B093D3014AE0C42ED12CE12CF12C59
:100A700050E0252E50E0352E6FE0462E67E2562ED0
:100A8000612C712C81E10E94C201892B09F043C1C4
:100A90008091D4019091D501892B61F581E090E09E
:100AA0009093D5018093D40161E084E00E94EB0132
:100AB0008091D0019091D101A091D201B091D30148
:100AC0000196A11DB11D8031E7E29E07A105B10588
:100AD0000CF018C18093D0019093D101A093D20162
:100AE000B093D3010E94450360E570E080E090E0A0
:100AF0000E947A028EE00E94C201892B91F58091BA
:100B0000D4019091D501892B61F521E030E030933B
:100B1000D5012093D40161E084E00E94EB01809133
:100B2000D0019091D101A091D201B091D301019651
:100B3000A11DB11D803137E29307A105B1050CF06D
:100B4000EFC08093D0019093D101A093D201B093D4
:100B5000D3010E94450364E670E080E090E00E94CB
:100B60007A028FE00E94C201892B69F58091CE0143
:100B70009091CF01892B39F541E050E05093CF019E
:100B80004093CE0161E084E00E94EB018091D001AE
:100B90009091D101A091D201B091D3010197A10907
:100BA000B109B7FDC6C08093D0019093D101A09345
:100BB000D201B093D3010E94450364E670E080E067
:100BC00090E00E947A0280E10E94C201892B09F024
:100BD000B9C061E084E00E94EB018091CC0190916A
:100BE000CD01843191052CF401969093CD01809331
:100BF000CC018091CC019091CD01449751F4109299
:100C0000D0011092D1011092D2011092D3010E9412
:100C100045038090D0019090D101A090D201B09076
:100C2000D301C501B401A70196010E94EA06660F2F
:100C3000771F6E5E7E4FFB011081CA01B901A701CB
:100C400096010E94EA06660F771F6E5E7E4FFB01DB
:100C50000081C501B40124E630E040E050E00E948C
:100C6000EA06CA01B901A70196010E94EA06660FC9
:100C7000771F6E5E7E4FFB01F081F983C501B401E1
:100C800028EE33E040E050E00E94EA06CA01B901D4
:100C9000A70196010E94EA06660F771F6E5E7E4FDF
:100CA000FB01B0800E94270380E40E94AC020E94F6
:100CB0000B030E94270380EC0E94AC028B2D0E9444
:100CC000AC0289810E94AC02802F0E94AC02812F6D
:100CD0000E94AC020E940B036AE070E080E090E0AA
:100CE0000E947A0260E084E00E94EB01211431044A
:100CF00009F4C8CE0E94F600882309F4C3CE0E94EE
:100D00000000C0CE4092D0015092D1016092D20139
:100D10007092D301E7CE1092D5011092D401EACEA1
:100D20004092D0015092D1016092D2017092D301D1
:100D300010CF1092D0011092D1011092D2011092D6
:100D4000D30139CF1092CD011092CC0162CFEFE2E6
:100D5000F1E01382128288EE93E0A0E0B0E0848399
:100D60009583A683B78384E091E09183808385ECAB
:100D700090E09587848784EC90E09787868780EC65
:100D800090E0918B808B81EC90E0938B828B82EC56
:100D900090E0958B848B86EC90E0978B868B118E00
:100DA000128E138E148E0895F999FECF92BD81BDD7
:100DB000F89A992780B50895262FF999FECF1FBA82
:100DC00092BD81BD20BD0FB6F894FA9AF99A0FBE74
:100DD00001960895052E97FB1EF400940E940107CA
:100DE00057FD07D00E94090707FC03D04EF40C946E
:100DF000010750954095309521953F4F4F4F5F4FDC
:100E0000089590958095709561957F4F8F4F9F4F76
:100E10000895A1E21A2EAA1BBB1BFD010DC0AA1F3B
:100E2000BB1FEE1FFF1FA217B307E407F50720F053
:100E3000A21BB30BE40BF50B661F771F881F991FCE
:100E40001A9469F760957095809590959B01AC0117
:100E5000BD01CF010895EE0FFF1F0590F491E02D25
:060E60000994F894FFCF95
:100E6600000000002C018C00B9007901EA00C800DE
:100E7600DC003F0006005B004F0066006D007D0051
:060E860007007F006F0071
:00000001FF
