:100000000C9461000C947E000C947E000C947E0095
:100010000C947E000C947E000C947E000C947E0068
:100020000C947E000C947E000C947E000C947E0058
:100030000C947E000C947E000C947E000C947E0048
:100040000C94B7020C947E000C947E000C947E00FD
:100050000C947E000C947E000C947E000C947E0028
:100060000C947E000C947E00000000002400270009
:100070002A0000000000250028002B0000000000DE
:1000800023002600290004040404040404040202DA
:100090000202020203030303030301020408102007
:1000A0004080010204081020010204081020000012
:1000B0000008000201000003040700000000000027
:1000C000000011241FBECFEFD8E0DEBFCDBF11E08E
:1000D000A0E0B1E0E4EEFAE002C005900D92A43198
:1000E000B107D9F721E0A4E1B1E001C01D92A73228
:1000F000B207E1F70E9401030C9470050C94000014
:10010000833081F028F4813099F08230A9F008958D
:100110008730A9F08830C9F08430B1F48091800034
:100120008F7D03C0809180008F7780938000089539
:1001300084B58F7784BD089584B58F7DFBCF809182
:10014000B0008F778093B00008958091B0008F7DCC
:10015000F9CFCF93DF93282F30E0F901E255FF4F1D
:100160008491F901E656FF4FD491F901EA57FF4F08
:10017000C491CC23A1F081110E948000EC2FF0E00B
:10018000EE0FFF1FE458FF4FA591B491EC91ED23C2
:1001900081E090E009F480E0DF91CF91089580E064
:1001A00090E0FACF1F93CF93DF93282F30E0F9012F
:1001B000E255FF4F8491F901E656FF4FD491F901C2
:1001C000EA57FF4FC491CC23A9F0162F81110E944A
:1001D0008000EC2FF0E0EE0FFF1FEE58FF4FA591CF
:1001E000B4918FB7F894EC91111108C0D095DE232B
:1001F000DC938FBFDF91CF911F910895DE2BF8CF55
:10020000CF93DF9390E0FC01E656FF4F24918A578D
:100210009F4FFC0184918823C9F090E0880F991FBB
:10022000FC01E859FF4FA591B491FC01EE58FF4F36
:10023000C591D49161110DC09FB7F8948C91209510
:1002400082238C938881282328839FBFDF91CF91BD
:100250000895623051F49FB7F8943C91822F8095B5
:1002600083238C93E8812E2BEFCF8FB7F894EC91FA
:100270002E2B2C938FBFEACF3FB7F89480911901B2
:1002800090911A01A0911B01B0911C0126B5A89B69
:1002900005C02F3F19F00196A11DB11D3FBFBA2F18
:1002A000A92F982F8827BC01CD01620F711D811DD8
:1002B000911D42E0660F771F881F991F4A95D1F75D
:1002C00008958F929F92AF92BF92CF92DF92EF925A
:1002D000FF924B015C010E943C016B017C010E947A
:1002E0003C016C197D098E099F09683E73408105A8
:1002F0009105A8F321E0821A9108A108B10888EEBF
:10030000C80E83E0D81EE11CF11C81149104A104E5
:10031000B10429F7FF90EF90DF90CF90BF90AF909E
:100320009F908F900895CF92DF92EF92FF920F935C
:100330001F93CF93DF9310E000E0CFE0D0E0CC2418
:10034000C394D12CE82EF12C60E083E00E94D2000F
:10035000CE010197F1F7B601002E02C0660F771F9C
:100360000A94E2F76E217F21002E02C075956795F1
:100370000A94E2F782E00E94D200CE010197F1F7E1
:1003800061E083E00E94D200CE010197F1F70F5F98
:100390001F4F08301105C1F660E083E00E94D200D3
:1003A000CE010197F1F760E082E00E94000161E078
:1003B00083E00E94D2002197F1F782E00E94A90019
:1003C000EC0161E082E00E94000181E0CD2B09F0A8
:1003D00080E0DF91CF911F910F91FF90EF90DF9020
:1003E000CF900895CF93DF9360E083E00E94D20026
:1003F00060E082E00E94D200CFE0D0E0CE01019721
:10040000F1F761E083E00E94D20061E082E00E94A7
:10041000D2002197F1F7DF91CF910895CF93DF9329
:1004200061E083E00E94D20061E082E00E94D2009D
:10043000CFE0D0E0CE010197F1F760E082E00E94CA
:10044000D20060E083E00E94D2002197F1F7DF91B3
:10045000CF9108950F931F93CF93DF93082F162FFB
:10046000D42FC22F0E940E0280E40E9493010E94AA
:10047000F2010E940E0280EC0E949301802F0E94E4
:100480009301812F0E9493018D2F0E9493018C2F45
:100490000E949301DF91CF911F910F910C94F20173
:1004A0000C942105CF92DF92EF92FF92609121018F
:1004B0007091220180912301909124012AE0C22EA3
:1004C000D12CE12CF12CA70196010E942F0581E08F
:1004D00090E00E9450026091210170912201809170
:1004E000230190912401A70196010E942F05CA01C2
:1004F000B901A70196010E942F0582E090E00E94B9
:10050000500260912101709122018091230190910C
:10051000240124E630E040E050E00E942F05CA01AB
:10052000B901A70196010E942F0583E090E00E9487
:1005300050026091210170912201809123019091DC
:10054000240128EE33E040E050E00E942F05CA016C
:10055000B901A70196010E942F0584E090E0FF9069
:10056000EF90DF90CF900C9450020C9419051F92DD
:100570000F920FB60F9211242F933F938F939F9357
:10058000AF93BF938091150190911601A09117012F
:10059000B09118013091140123E0230F2D3758F545
:1005A0000196A11DB11D2093140180931501909314
:1005B0001601A0931701B093180180911901909131
:1005C0001A01A0911B01B0911C010196A11DB11D42
:1005D0008093190190931A01A0931B01B0931C0101
:1005E000BF91AF919F918F913F912F910F900FBE2F
:1005F0000F901F90189526E8230F0296A11DB11D9C
:10060000D2CFCF93DF9300D000D000D0CDB7DEB7EC
:10061000789484B5826084BD84B5816084BD85B5DD
:10062000826085BD85B5816085BD80916E008160E9
:1006300080936E001092810080918100826080938F
:100640008100809181008160809381008091800091
:100650008160809380008091B10084608093B100BC
:100660008091B00081608093B00080917A008460B6
:1006700080937A0080917A00826080937A008091E2
:100680007A00816080937A0080917A0080688093FC
:100690007A001092C10062E08EE00E94000162E0E8
:1006A0008FE00E94000162E080E10E94000162E0B0
:1006B00081E10E94000161E084E00E94000161E0AC
:1006C00083E00E94000161E082E00E9400010E943C
:1006D0000E028EE80E9493010E94F20120E040E0A9
:1006E00060E080E00E942A0290E080E00E94B50273
:1006F000882339F00E94520260E090E080E00E947E
:10070000500284E090E00E94B502182F83E090E050
:100710000E94B50228EE33E0129FA001139F500DF6
:10072000112494E6899F400D511D11245A83498359
:1007300082E090E00E94B502A981BA812AE0829FFE
:10074000A00DB11D1124BA83A98381E090E00E941D
:10075000B50249815A81480F511DCA01092E000C6A
:10076000AA0BBB0B8093210190932201A09323013C
:10077000B09324016AE0C62ED12CE12CF12C70E05C
:10078000272E70E0372E01E010E0EFE08E2EE7E23A
:100790009E2EA12CB12C81E10E94A900892B51F53C
:1007A0008091250190912601892B21F51093260136
:1007B0000093250161E084E00E94D2008091210134
:1007C00090912201A0912301B09124010196A11DD5
:1007D000B11D803157E29507A105B1050CF0FFC0AE
:1007E0008093210190932201A0932301B0932401CF
:1007F0000E9452028EE00E94A900892B09F001C1DB
:100800008091250190912601892B51F510932601A5
:100810000093250161E084E00E94D20080912101D3
:1008200090912201A0912301B09124010196A11D74
:10083000B11D803127E29207A105B1050CF0D8C0A7
:100840008093210190932201A0932301B09324016E
:100850000E94520264E670E080E090E00E94610134
:100860008FE00E94A900892B09F0D9C080911F0157
:1008700090912001892B29F51093200100931F01ED
:1008800061E084E00E94D2008091210190912201D8
:10089000A0912301B09124010197A109B109B7FDED
:1008A000B5C08093210190932201A0932301B093BE
:1008B00024010E94520264E670E080E090E00E9411
:1008C000610180E10E94A900892B09F0ADC061E0BF
:1008D00084E00E94D20080911D0190911E01843617
:1008E00091052CF4019690931E0180931D01809137
:1008F0001D0190911E018436910551F41092210141
:100900001092220110922301109224010E9452029F
:1009100040902101509022016090230170902401A9
:10092000C301B201A70196010E942F05660F771F30
:10093000CB0180509F4F9A838983CA01B901A701D7
:1009400096010E942F05660F771FDB01A050BF4F55
:10095000BC83AB83C301B20124E630E040E050E049
:100960000E942F05CA01B901A70196010E942F0517
:100970009B01220F331F20503F4F3E832D83C30125
:10098000B20128EE33E040E050E00E942F05CA019A
:10099000B901A70196010E942F05660F771FFB0181
:1009A000E050FF4FA981BA812C91AB81BC814C9161
:1009B000AD81BE816C9180810E942A026AE070E064
:1009C00080E090E00E94610160E084E00E94D2003B
:1009D0002114310409F4DFCE0E940000DCCE8092A5
:1009E000210190922201A0922301B092240100CF14
:1009F0008092210190922201A0922301B0922401C1
:100A000027CF10922601109225012ACF10922101A2
:100A10001092220110922301109224014ACF1092C9
:100A2000200110921F014DCF10921E0110921D0146
:100A30006FCFF999FECF92BD81BDF89A992780B505
:100A40000895262FF999FECF1FBA92BD81BD20BD12
:100A50000FB6F894FA9AF99A0FBE01960895052EEA
:100A600097FB1EF400940E94460557FD07D00E9494
:100A70004E0507FC03D04EF40C9446055095409566
:100A8000309521953F4F4F4F5F4F0895909580953A
:100A9000709561957F4F8F4F9F4F0895A1E21A2E59
:100AA000AA1BBB1BFD010DC0AA1FBB1FEE1FFF1F12
:100AB000A217B307E407F50720F0A21BB30BE40B62
:100AC000F50B661F771F881F991F1A9469F76095A9
:100AD0007095809590959B01AC01BD01CF01089563
:040AE000F894FFCFB8
:100AE4003F0006005B004F0066006D007D000700BC
:040AF4007F006F0010
:00000001FF
